S02B000066697273745F73746167655F62746C5F65666D333267673131622F52656C656173652F6578652F6614
S3150FE100000F4880F308880F4800470000B105E10F5C
S3150FE10010B105E10FB105E10FB105E10FB105E10F52
S3150FE10020B105E10FB105E10FCC05E10FB105E10F27
S3150FE10030B105E10FB105E10FB105E10FB105E10F32
S3150FE10040007C00206505E10F10B5054C237833B927
S3150FE10050044B13B10448AFF300800123237010BDA5
S3150FE100601401002000000000E005E10F084B10B578
S3150FE100701BB108480849AFF300800848036803B984
S3150FE1008010BD074B002BFBD0BDE81040184700BF52
S3150FE1009000000000E005E10F18010020100100202B
S3150FE100A000000000034AD2F8883043F47003C2F827
S3150FE100B08830704700ED00E00E4A4FF08043D96972
S3150FE100C0C90702D58AB1013AF7E772B10122186180
S3150FE100D0DA60DB6913F006000AD05A0707D413F08A
S3150FE100E0020F0CBF0020FE2002E0FD2000E0FF2002
S3150FE100F040B270478096980030B509B900203BE0D1
S3150FE10100A2B94FF0804350F822409C610824DC608D
S3150FE101101A4B01324FF08044E469E50702D553B338
S3150FE10120013BF7E73BB38A42EBD1E7E7EFF3108504
S3150FE1013072B600224FF08043DC69240706D4DC69EE
S3150FE1014004F01904102C08BFDC60F3E750F82240E5
S3150FE101509C61013210248A42DC60EBD105B962B6AB
S3150FE10160064B4FF08042D269D20702D51BB1013B54
S3150FE10170F7E7002BC2D1FD2040B230BD8096980043
S3150FE101802DE9F8431F461A4B884659685B684FF0CD
S3150FE10190804106468B6843F001038B6095084FF06B
S3150FE101A00009A94519D206EB89042046FFF784FF1A
S3150FE101B0D0B9C4F30B04C4F58054A408C9EB050305
S3150FE101C09C4228BF1C46404621463A46FFF794FF1C
S3150FE101D020B9A14408EB8408E3E700204FF0804201
S3150FE101E0936823F00103936040B2BDE8F88300BF43
S3150FE101F000300E401B4B5A685B684FF080439A689C
S3150FE1020042F001029A6001221861DA60DA69510758
S3150FE1021005D59A6822F001029A60FF2020E0DA699B
S3150FE10220920705D59A6822F001029A60FE2017E03F
S3150FE102300222DA600C4A4FF080431946D86910F072
S3150FE10240010002D012B1013AF5E72AB98B6823F022
S3150FE1025001038B60FD2003E09A6822F001029A60A8
S3150FE1026040B2704700300E40809698000023FFF7AA
S3150FE1027087BF000008B5094B1A68094B1A60094B8D
S3150FE1028040221A615A685203FCD400F069F800283B
S3150FE10290FBD040F2022000F08DF800BF04010020F0
S3150FE102A00001002000300E4008B500F0A3F80D4B19
S3150FE102B05B68B3F5803F09D040F20923984202D03B
S3150FE102C0B0F5007F02D100F013F850B9064B074A9B
S3150FE102D093601A6882F3088882F309885B68984706
S3150FE102E0FEE708BD00500E400010E10F00ED00E003
S3150FE102F0174B1B68186970B5846ADE68B44201D280
S3150FE10300002070BD06F5E0439C42F9D20444A41BDC
S3150FE10310104B22689A42F3D1E1684FF0FF3200F0B9
S3150FE1032013F90D4B98420546EAD10C4BA1681B68B0
S3150FE103309A68914209D83046D9684FF0FF3200F0FA
S3150FE1034003F9401B18BF012070BD012070BD00BF2E
S3150FE103502800E10F07B0CD5EE320BBDE2810E10FE9
S3150FE10360F8B5114B1B681F69DC68BB6A3B441D1B63
S3150FE103702646EA68A3189E4205D2304600F07FF87A
S3150FE1038006F58056F5E73946204600F086F8074B25
S3150FE103901B682046D9684FF0FF3200F0D5F8044BC1
S3150FE103A0C31A58425841F8BD2800E10F2810E10F52
S3150FE103B0E320BBDE4FF000534FF20F025A800A4A99
S3150FE103C01880136823F4E06343F480631360BFF38B
S3150FE103D04F8F0649064BCA6802F4E0621343CB60BE
S3150FE103E0BFF34F8F00BFFDE700500E4000ED00E079
S3150FE103F00400FA054FF000534FF20F015A888A4273
S3150FE1040001D1188870473AB91B88012B40F20220B7
S3150FE1041018BF4FF4007070474FF4007070474FF0FC
S3150FE10420804341F671321A649A6822F001029A60AA
S3150FE1043070474FF080439A6822F001029A600022DA
S3150FE104401A64704713B5830745BF09046FEA114173
S3150FE104506FEA01416FEA014158BF6FEA114120F09E
S3150FE1046003040191FFF7DBFF01A904222046FFF701
S3150FE10470FDFE0446FFF7DDFF204602B010BD10B5C5
S3150FE104800446FFF7CCFF2046FFF7B4FE0446FFF71D
S3150FE10490D0FFB4FA84F0400910BD40EA02032DE91A
S3150FE104A0F0411446DA0705460E4602D50020BDE8AF
S3150FE104B0F08114B90120BDE8F081830728D50988B9
S3150FE104C0FFF7C0FF0028F1D1023C032C05F102052D
S3150FE104D006F1020611D924F00307FFF7A0FF28461C
S3150FE104E031463A46FFF7C2FE8046FFF7A2FFB8F163
S3150FE104F0000FDBD13E443D44E41B002CDAD0284605
S3150FE105003188FFF79FFFB0FA80F04009BDE8F0812F
S3150FE10510032CF4D9DFE70000484010B5C0B20C0A4E
S3150FE10520082310F0010F4FEA500218BF054803F1F7
S3150FE10530FF3314BF5040104613F0FF03F1D1604073
S3150FE1054010BD00BF2083B8ED38B504464518AC425F
S3150FE1055006D0114614F8010BFFF7DEFF0246F6E768
S3150FE10560104638BD0B4880470B4880470B490C4A6C
S3150FE105700C4B9A42BEBF51F8040B42F8040BF8E755
S3150FE1058009490A4A00209142BCBF41F8040BFAE738
S3150FE10590FFF770FEA500E10FA902E10FE405E10FF8
S3150FE105A00001002014010020140100203001002079
S3150FE105B0FEE700BFF8B500BFF8BC08BC9E46704722
S3150FE105C0F8B500BFF8BC08BC9E467047AD1007B042
S3150FE105D001000000000005010010E10F008000009E
S3090FE105E00000000021
S3150FE105E4C0EA2101C0EA21016D00E10F4900E10FE3
S3090FE105F4000000000D
S7050FE10565A0
