S02B000066697273745F73746167655F62746C5F6566783332786731312F52656C656173652F6578652F6669F1
S31500000000007C002085050000D1050000D105000018
S31500000010D1050000D1050000D1050000D105000082
S31500000020D1050000D1050000EC050000D105000057
S31500000030D1050000D1050000D1050000D105000062
S3150000004010B5054C237833B9044B13B10448AFF30C
S3150000005000800123237010BD140100200000000061
S3150000006000060000084B10B51BB108480849AFF35D
S3150000007000800848036803B910BD074B002BFBD06E
S31500000080BDE81040184700BF000000000006000051
S315000000901801002010010020000000000D4AD2F8CF
S315000000A0883043F47003C2F888300B4B5A6D42F423
S315000000B000525A651A6C22F003021A64074A136842
S315000000C023F00103136052F8143C23F0805342F8E6
S315000000D0143C704700ED00E000300E4074300E40D6
S315000000E00E4A0F4BD969C90702D58AB1013AF8E71A
S315000000F072B101221861DA60DB6913F006000AD0DA
S315000001005A0707D413F0020F0CBF0020FE2002E0AE
S31500000110FD2000E0FF2040B2704700BF80969800A7
S3150000012000000E4030B509B9002037E092B91C4BEB
S3150000013050F822409C610824DC601A4B0132184CAE
S31500000140E469E50702D543B3013BF8E72BB38A42DE
S31500000150EDD1E9E7EFF3108572B60022104BDC69AA
S31500000160240706D4DC6904F01904102C08BFDC60EF
S31500000170F4E750F822409C61013210248A42DC6088
S31500000180ECD105B962B6074B054AD269D20702D54A
S315000001901BB1013BF8E7002BC6D1FD2040B230BDB4
S315000001A000000E40809698002DE9F0470E461F4944
S315000001B01F468B6843F0010381468B604FEA920825
S315000001C0B2460025454519D209EB85042046FFF7BE
S315000001D087FF38BBC4F30A04C4F50064A408C5EB62
S315000001E008039C4228BF1C46504621463A46FFF764
S315000001F099FF20B925440AEB840AE3E70020D9F8E1
S31500000200002033689A4208D04846FFF769FF20B9B4
S31500000210304601213A46FFF785FF044A936823F0EA
S315000002200103936040B2BDE8F08700BF00000E40B6
S31500000230194B9A6842F001029A6001221861DA604D
S31500000240DA69510705D59A6822F001029A60FF2003
S315000002501FE0DA69920705D59A6822F001029A60D2
S31500000260FE2016E00222DA600C4A0B4BD86910F029
S315000002700100194602D012B1013AF6E72AB98B6895
S3150000028023F001038B60FD2003E09A6822F001024F
S315000002909A6040B2704700BF00000E4080969800FA
S315000002A00023FFF781BF000008B5064B1A68064B0E
S315000002B01A6000F063F80028FBD040F2022000F03C
S315000002C085F800BF040100200001002008B500F0F9
S315000002D09DF80E4B5B68B3F5803F09D040F20923C9
S315000002E0984202D0B0F5007F02D100F013F858B959
S315000002F04FF40063064A93601A6882F3088882F313
S3150000030009885B689847FEE708BD00BF00500E40AD
S3150000031000ED00E0282370B51B681869DE68846A62
S31500000320B44201D2002070BD06F560539C42F9D25A
S315000003300444A41B0F4B22689A42F3D1E1684FF0A4
S31500000340FF3200F011F90C4B98420546EAD140F60F
S315000003502803A1681B689A68914209D83046D96873
S315000003604FF0FF3200F000F9401B18BF012070BDAE
S31500000370012070BD07B0CD5EE320BBDEF8B52823B3
S315000003801B681F69DC68BB6A3B441D1B2646EA687E
S31500000390A3189E4205D2304600F081F806F50066A5
S315000003A0F5E73946204600F088F840F6280320464F
S315000003B01B684FF0FF32D96800F0D6F8024BC31A1B
S315000003C058425841F8BD00BFE320BBDE4FF0005352
S315000003D04FF20F025A800A4A1880136823F4E0632A
S315000003E043F480631360BFF34F8F0649064BCA6818
S315000003F002F4E0621343CB60BFF34F8F00BFFDE70B
S3150000040000500E4000ED00E00400FA054FF00053E6
S315000004104FF20F015A888A4201D1188870473AB9BB
S315000004201B88012B40F2022018BF4FF40070704762
S315000004304FF4007070470000044B41F671321A64A5
S315000004409A6822F001029A60704700BF00000E40D1
S31500000450034B9A6822F001029A6000221A647047E0
S3150000046000000E4013B5830745BF09046FEA11412A
S315000004706FEA01416FEA014158BF6FEA114120F06E
S3150000048003040191FFF7D8FF01A904222046FFF7D4
S3150000049007FF0446FFF7DCFF204602B010BD10B58B
S315000004A00446FFF7C9FF2046FFF7C2FE0446FFF7E2
S315000004B0CFFFB4FA84F0400910BD40EA02032DE9EB
S315000004C0F0411446DA0705460E4602D50020BDE87F
S315000004D0F08114B90120BDE8F081830728D5098889
S315000004E0FFF7C0FF0028F1D1023C032C05F10205FD
S315000004F006F1020611D924F00307FFF79DFF2846EF
S3150000050031463A46FFF7CCFE8046FFF7A1FFB8F129
S31500000510000FDBD13E443D44E41B002CDAD02846D4
S315000005203188FFF79FFFB0FA80F04009BDE8F081FF
S31500000530032CF4D9DFE70000484010B5C0B20C0A1E
S31500000540082310F0010F4FEA500218BF054803F1C7
S31500000550FF3314BF5040104613F0FF03F1D1604043
S3150000056010BD00BF2083B8ED38B504464518AC422F
S3150000057006D0114614F8010BFFF7DEFF0246F6E738
S31500000580104638BD0B4880470B4880470B490C4A3C
S315000005900C4B9A42BEBF51F8040B42F8040BF8E725
S315000005A009490A4A00209142BCBF41F8040BFAE708
S315000005B0FFF77AFE9D000000CD0200000406000051
S315000005C00001002014010020140100203001002049
S315000005D0FEE700BFF8B500BFF8BC08BC9E467047F2
S315000005E0F8B500BFF8BC08BC9E467047AD1007B012
S315000005F00100000000000501000800000080000066
S3090000060000000000F0
S31500000604C0EA2101C0EA21016500000041000000A2
S3090000061400000000DC
S7050000058570
