S02B000066697273745F73746167655F62746C5F65666D33326A673132622F52656C656173652F6578652F6610
S3150FE100000F4880F308880F4800470000AD05E10F60
S3150FE10010AD05E10FAD05E10FAD05E10FAD05E10F62
S3150FE10020AD05E10FAD05E10FC805E10FAD05E10F37
S3150FE10030AD05E10FAD05E10FAD05E10FAD05E10F42
S3150FE10040007C00206105E10F10B5054C237833B92B
S3150FE10050044B13B10448AFF300800123237010BDA5
S3150FE100601401002000000000DC05E10F084B10B57C
S3150FE100701BB108480849AFF300800848036803B984
S3150FE1008010BD074B002BFBD0BDE81040184700BF52
S3150FE1009000000000DC05E10F18010020100100202F
S3150FE100A000000000704700000E4A0F4BD969C907DF
S3150FE100B002D58AB1013AF8E772B101221861DA6025
S3150FE100C0DB6913F006000AD05A0707D413F0020FC3
S3150FE100D00CBF0020FE2002E0FD2000E0FF2040B231
S3150FE100E0704700BF8096980000000E4030B509B901
S3150FE100F0002038E092B950F822401C4B01329C6146
S3150FE101000824DC601A4B194CE469E50702D54BB3B9
S3150FE10110013BF8E733B38A42EDD1E9E7EFF3108517
S3150FE1012072B60022114BDC69240706D4DC6904F0B0
S3150FE101301904102C08BFDC60F4E750F822400132B5
S3150FE101409C618A424FF01004DC60EBD105B962B6CF
S3150FE10150074B064AD269D20702D51BB1013BF8E735
S3150FE10160002BC5D1FD2040B230BD00BF00000E40CF
S3150FE10170809698002DE9F84306461F46184B8846A8
S3150FE10180596818495B688B68950843F001038B60E2
S3150FE101904FF00009A94519D206EB89042046FFF76E
S3150FE101A083FFC8B9C4F30A04C4F50064A408C9EB14
S3150FE101B005039C4228BF1C46404621463A46FFF7B7
S3150FE101C095FF20B9A14408EB8408E3E70020054A2F
S3150FE101D0936823F00103936040B2BDE8F88300BF53
S3150FE101E000300E4000000E401A4B5A685B681A4BFE
S3150FE101F09A6842F001029A6001221861DA60DA69BF
S3150FE10200510705D59A68FF2022F001029A601FE097
S3150FE10210DA69920705D59A68FE2022F001029A6003
S3150FE1022016E00222DA600D4A0B4BD869194610F037
S3150FE10230010002D012B1013AF6E72AB98B68FD2027
S3150FE1024023F001038B6003E09A6822F001029A60C2
S3150FE1025040B2704700300E4000000E408096980085
S3150FE102600023FFF787BF000008B5094B1A68094B52
S3150FE102701A60094B40221A615A685203FCD400F006
S3150FE1028069F80028FBD040F2022000F08DF800BF9C
S3150FE10290040100200001002000300E4008B500F0F7
S3150FE102A0A3F80D4B5B68B3F5803F09D040F2092304
S3150FE102B0984202D0B0F5007F02D100F013F850B9A1
S3150FE102C0064B074A93601A6882F3088882F3098816
S3150FE102D05B689847FEE708BD00500E400008E10F46
S3150FE102E000ED00E0174B70B51B681869DE68846A8C
S3150FE102F0B44201D2002070BD06F510439C42F9D2FB
S3150FE103000444A41B2268104B9A42F3D1E1684FF0E3
S3150FE10310FF3200F017F90D4B05469842EAD10C4B27
S3150FE10320A1681B689A68914209D83046D9684FF09F
S3150FE10330FF3200F007F9401B18BF012070BD012005
S3150FE1034070BD00BF2800E10F07B0CD5EE320BBDE35
S3150FE103502808E10FF8B5114B1B68DC681F692646C3
S3150FE10360BB6A3B441D1BEA68A3189E4205D2304681
S3150FE1037000F083F806F50066F5E73946204600F00A
S3150FE103808AF8074B20461B684FF0FF32D96800F019
S3150FE10390D9F8044BC31A58425841F8BD2800E10F6A
S3150FE103A02808E10FE320BBDE4FF20F024FF00053B7
S3150FE103B05A800A4A1880136823F4E06343F4806392
S3150FE103C01360BFF34F8F0649064BCA6802F4E0622A
S3150FE103D01343CB60BFF34F8F00BFFDE700500E40D5
S3150FE103E000ED00E00400FA054FF20F014FF0005364
S3150FE103F05A888A4201D1188870473AB91B8840F268
S3150FE104000220012B18BF4FF4007070474FF40070B4
S3150FE104107047000041F67132034B1A649A6822F075
S3150FE1042001029A60704700BF00000E40034B9A68C5
S3150FE1043022F001029A6000221A64704700000E4012
S3150FE10440830713B545BF09046FEA11416FEA01410D
S3150FE104506FEA014158BF6FEA114120F003040191A0
S3150FE10460FFF7D8FF01A904222046FFF7F9FE04465C
S3150FE10470FFF7DCFF204602B010BD10B50446FFF7CB
S3150FE10480C9FF2046FFF7B0FE0446FFF7CFFFB4FAE8
S3150FE1049084F0400910BD40EA02032DE9F04114460C
S3150FE104A0DA0705460E4602D50020BDE8F08114B9FC
S3150FE104B00120BDE8F081830728D50988FFF7C0FF42
S3150FE104C00028F1D1023C032C05F1020506F10206E3
S3150FE104D011D924F00307FFF79DFF284631463A4627
S3150FE104E0FFF7BEFE8046FFF7A1FFB8F1000FDBD1A4
S3150FE104F03E443D44E41B002CDAD028463188FFF711
S3150FE105009FFFB0FA80F04009BDE8F081032CF4D9E2
S3150FE10510DFE70000484010B5C0B20C0A082310F01F
S3150FE10520010F4FEA500218BF054803F1FF3314BF1D
S3150FE105305040104613F0FF03F1D1604010BD00BFEC
S3150FE105402083B8ED38B504464518AC4206D01146BE
S3150FE1055014F8010BFFF7DEFF0246F6E7104638BD4A
S3150FE105600B4880470B4880470B490C4A0C4B9A4284
S3150FE10570BEBF51F8040B42F8040BF8E709490A4AE2
S3150FE1058000209142BCBF41F8040BFAE7FFF76CFE7E
S3150FE10590A500E10F9D02E10FE005E10F000100204B
S3150FE105A0140100201401002030010020FEE700BFF6
S3150FE105B0F8B500BFF8BC08BC9E467047F8B500BF5A
S3150FE105C0F8BC08BC9E467047AD1007B001000000AD
S3150FE105D0000005010008E10F0080000000000000A7
S3150FE105E0C0EA2101C0EA21016D00E10F4900E10FE7
S3090FE105F00000000011
S7050FE10561A4
