S068000073616D706C652D617070732F626F6F746C6F616465722D756172742D62676170692F65667233326267316231333266323536676D33322F626F6F746C6F616465722F52656C656173652F4578652F626F6F746C6F616465722D636F6D62696E65642E73333754
S315000000009004002095050000DD050000E1050000D4
S31500000010E5050000E9050000ED0500000000000010
S315000000200000000000000000AC050000F105000023
S31500000030F505000000000000F9050000FD050000C0
S315000000406849694A01E021B1491E1369DB07FAD400
S3150000005001B9BAE0506001201060106910F0060F77
S3150000006005D0410700D5B3E0800700D5B3E00020F6
S315000000707047F0B513460022002936D0594C5A4D28
S315000000808BB98B4231D250F8046BEE605B1C0826AC
S315000000902E60264601E036B3761E2F69FF07FAD496
S315000000A0002EEED11FE0EFF3108672B600230EE0AD
S315000000B02F6907F01907102F08BF2F602F693F0718
S315000000C0F6D550F8047BEF605B1C10272F608B423F
S315000000D0F4D306B962B6264601E026B1761E286933
S315000000E0C007FAD40EB96FF002021046F0BD2DE932
S315000000F0F84F3B4F0D4639680446002041F0010198
S315000001009B4639604FEA92088146AA4602E0B1440E
S315000001100AEB860AC14517D204EB89063046FFF77B
S315000001208FFF010022D1C6F30A00C0F500608608E1
S31500000130A8EB0900B04238BF06465A46314650463B
S31500000140FFF797FF0100E2D021682A68914209D0A3
S315000001502046FFF775FF010004D15A4601212846C3
S31500000160FFF787FF3968490849003960BDE8F28F13
S315000001701B491C4A0B6843F001030B608860012091
S3150000018048604869400704D5086840084000086090
S315000001901EE04869800704D50868400840000860EA
S315000001A019E00220486001E022B1521E4869C007EA
S315000001B0FAD422B9086840084000086005E00868DB
S315000001C0400840000860002070476FF0020070474A
S315000001D04FF0FF3070476FF001007047002386E74D
S315000001E008000E40809698000C000E40084841F624
S315000001F0713181630168490849000160704704480C
S3150000020001684908490001600021816370470000C8
S3150000021008000E4010B50446FFF7E8FF2046FFF73A
S31500000220A7FF0446FFF7EBFF601E8041C00F10BD1D
S3150000023010B58408800782B005D5080440F47F40D5
S3150000024040F0FF0003E041F07F4040F47F00009063
S31500000250FFF7CCFF04226946A000FFF7BFFF044664
S31500000260FFF7CDFF204616BD2DE9F04104460E46A8
S31500000270154604F0010005F00101084328D12DB30D
S31500000280A00707D536F8021B2046FFF7D1FFF8B9BD
S31500000290A41CAD1E042D13D3AF08FFF7A7FFBF00A4
S315000002A03A4631462046FFF799FF8046FFF7A7FFFB
S315000002B03C19ED1B7808B8F1000F06EB400607D194
S315000002C025B131882046FFF7B3FF08B9012000E0C9
S315000002D00020BDE8F081000070B52820016808699B
S315000002E0CC68826AA24222D304F560518A421ED2A9
S315000002F0111B4518224A2968914218D1E968214EF6
S315000003004FF0FF3200F052F8B04210D140F628000C
S315000003100068AA688168914207D3C1684FF0FF322E
S31500000320204600F043F8B04201D0012070BD002005
S3150000033070BDF8B5282000680569C468A86A001B66
S315000003402E18274604E03846FFF764FF07F50067D6
S31500000350F26810198742F6D329462046FFF784FF34
S3150000036040F628004FF0FF320068C168204600F0D2
S315000003701DF80449884201D00020F2BD0120F2BDDB
S3150000038007B0CD5EE320BBDE0A0A484000F0FF005E
S3150000039008214308C00746BF034858401846491E6F
S315000003A0F7D15040704700002083B8ED70B5044681
S315000003B00D461046002604E00146A05DFFF7E4FF67
S315000003C0761CAE42F8D370BD154816490068086021
S315000003D0FFF7AFFF0028FBD040F2022000F028F81C
S315000003E000BF80B500F044F80F490968B1F5803FB9
S315000003F00AD040F20921884218BFB0F5007F03D128
S31500000400FFF76AFF00B101BD08494FF400600860BC
S31500000410016881F3088881F3098840688047FEE710
S31500000420880000208C00002004500E4008ED00E0FB
S315000004304FF0005108804FF20F00488009480168CC
S3150000044021F4E06141F480610160BFF34F8F0648FB
S31500000450064A016801F4E06111430160BFF34F8F62
S3150000046000BFFDE700500E400CED00E00400FA0569
S315000004704FF000504FF20F024188914201D100889F
S315000004807047002904BF0088012802D140F20220EB
S3150000049070474FF4007070470B48016841F47001D3
S315000004A001600A48416941F40051416101688908C7
S315000004B089000160416B490849004163016A21F0E6
S315000004C0805101627047000088ED00E040300E4028
S315000004D010B450F8041B79B102684368024408302E
S315000004E0DC0744BFA9F10104E31852F8044B43F8B2
S315000004F0044B091FF9D1ECE710BC704710B507494A
S3150000050079441831064C7C44163404E00A68081D08
S31500000510114488470146A142F8D110BD2C000000C5
S315000005203C0000004EF68851CEF20001086840F407
S3150000053070000860BFF34F8FBFF36F8F4FF00070EE
S31500000540E1EE100A7047000089FFFFFF100000006F
S315000005507000000080000020000000000120C0465E
S31500000560002801D0FFF7CAFF0020AFF30080FFF795
S315000005702BFF00F000F800F001B8000007463846EF
S3150000058000F002F8FBE700002021090326311820BD
S31500000590ABBEF9E702488047024880470248004759
S315000005A099040000E3030000D1050000AD1007B078
S315000005B001000000000005010008000000800000A6
S315000005C000F0490200800000C0EA2101C0EA2101D2
S315000005D0AFF30080FFF7A6FFFFF7C0FFFFF7FEBFF0
S315000005E0FFF7FEBFFFF7FEBFFFF7FEBFFFF7FEBF39
S315000005F0FFF7FEBFFFF7FEBFFFF7FEBFFFF7FEBF29
S3150000080020110020453400007B0F0000A12D0000C0
S31500000810830F000003190000271B000000000000E2
S31500000820000000000000000040080000B31B0000AC
S31500000830D31C000000000000DF230000032D000091
S3150000084007B0CD5E0100000000000501942D0000F8
S315000008500040000000000400F00010003D340000DD
S3150000086041340000F52F000063340000913400008D
S315000008700000000001790122091DC01C00F014BA15
S3150000088000F0A4B900B5A3B000F038FBB0F5027FC4
S3150000089008D168460FF28C11882200F043FB6846A7
S315000008A0FFF7E8FF68460FF20421882200F03AFBC2
S315000008B040F628010DF1070009688968016068465D
S315000008C0FFF7D8FF23B000BDADF5247D60A80FF279
S315000008D06421882200F026FB0FF2E0200FC80BAC43
S315000008E084E80F0002A8242100F048FB20230FAA69
S315000008F02AA93CA800F080FC40F6033408E0012059
S315000009008DF886010020ADF8870160A8FFF7B2FFD9
S31500000910882182A800F032FB00F00AFA0028FBD0FA
S315000009204FF47A700090012382A801AA0121C01C0D
S3150000093000F01BFA9DF80B022028EDD14FF47A70D7
S315000009400090012301AA032183A800F00EFA019862
S315000009500328DDD19DF80C5275B140F6B8300090F1
S31500000960012383A801AA2946C01C00F0FEF90199BB
S31500000970A94208BF0028CBD19DF80D020028C7D197
S315000009809DF80E029DF80F320328C1D8DFE800F06B
S315000009903703041ABCE7B2E70BA8009084AA02A9A1
S315000009A03CA800F065FC02218DF8861100281CBFCA
S315000009B041F20701884212BFADF887410020ADF829
S315000009C08701A2E703208DF886019DF80B109DF89C
S315000009D00A0008421ABF0020ADF88701ADF887412A
S315000009E060A8FFF747FF9DF80A009DF80B10084026
S315000009F09DF8081008428BD040F2092009E09DF8C6
S31500000A000B109DF80A0081F00101084203D040F264
S31500000A10032000F03DFA012B14BF40F2012040F202
S31500000A200220F6E7000000A0020001030B00000010
S31500000A3000000000000000000000000000000000B0
S31500000A4000000000000000000000000000000000A0
S31500000A500000000000000000000000000000000090
S31500000A600000000000000000000000000000000080
S31500000A700000000000000000000000000000000070
S31500000A800000000000000000000000000000000060
S31500000A900000000000000000000000000000000050
S31500000AA0000000000000000000000000000000A0A0
S31500000AB0040000000000000000000000000000002C
S31500000AC00000000000000000000000000000000020
S31500000AD00000000000000000000000000000000010
S31500000AE00000000000000000000000000000000000
S31500000AF000000000000000000000000000000000F0
S31500000B0000000000000000000000000000000000DF
S31500000B1000000000000000000000000000000000CF
S31500000B2000000000000000000000000000000000BF
S31500000B30000000000000002002000000000000008D
S31500000B40000000000000000000000000000000009F
S31500000B50000000000000000000000000000000008F
S31500000B60000000000000000000000000000000007F
S31500000B70000000000000000000000000000000006F
S31500000B80000000000000000000000000000000005F
S31500000B90000000000000000000000000000000004F
S31500000BA0000000000000000000000000000000003F
S31500000BB0000000000000000000000000000000002F
S31500000BC03D2F0000000000008D2F000010B5012110
S31500000BD08448854C00F0A6FE0121844800F0A2FE60
S31500000BE00121834800F09EFE0121824800F09AFE12
S31500000BF040F6AA60E060002100202060606641F2B5
S31500000C0005006060A1606161E1647B49A164002127
S31500000C106167A167E16760602068206077480068C7
S31500000C2001280CBF4FF4957040F27B20C000606134
S31500000C30012304220121002000F0C0FE012301222D
S31500000C400021002000F0BAFE40F21F10A067012329
S31500000C500320606704220321052000F0AFFE052073
S31500000C60E0604FF0E0616648016000210162C16208
S31500000C704163C1664FF4402262490A6000228A60DD
S31500000C804A600FF2B412920892008A615E4A0A63C1
S31500000C9000228A634A6303215C4A11600121C16311
S31500000CA002205B49086010BD70B50E46802E0546D1
S31500000CB0144602D341F2031070BD00F028F810B9B3
S31500000CC041F2062070BD30460026524902E0AA5D78
S31500000CD08A55761C8642FAD3D1F88020401E60F3EE
S31500000CE00E12C1F8802001F1800080084A49800078
S31500000CF008600220494908603CB100F008F8002865
S31500000D00FBD0474800688006FBD5002070BD4548EB
S31500000D1045498268920702D50220086003E0006810
S31500000D20800703D4022088600120704700207047A6
S31500000D303E48006840F20111884208BF002007D0F3
S31500000D4040F2022188420EBF4FF480703849401AA3
S31500000D5038490968814201D10020704701D2401A02
S31500000D607047C1F5007140187047F8B504460E4645
S31500000D7015468BB1069F2FB100F05AFE002138466A
S31500000D8000F078FEFFF7D4FFB04205D2002FF9D06D
S31500000D9000F086FE0028F5D0FFF7CAFFB04202D267
S31500000DA0FFF7C6FF064600201949224A204B03E0FA
S31500000DB00027176002270F60B0420FD2176813F89A
S31500000DC007C004F800C0401C7F1CB7F5007F176001
S31500000DD0EED0B7F5807FEFD10127ECE705B12860AB
S31500000DE00020F2BD4041050000000140002508003A
S31500000DF00045080000220400F9FF010094400E405F
S31500000E0000200E4080200E4001000C0028200E44D9
S31500000E1008200E4680000020C8200E403C200E40D0
S31500000E201000014020200E4020200E4494200E4049
S31500000E302011002028130020F00F10031C00014091
S31500000E40201100201300000009000000000100002E
S31500000E500202000013000000F00F10031C00014006
S31500000E60201200201300000009000000000200000C
S31500000E7001010000D3FFFFFF4FF0005108804FF241
S31500000E800F00488070470F494CF23C30088070478D
S31500000E904FF0005108804FF20F0048800A48016861
S31500000EA021F4E06141F480610160BFF34F8F074890
S31500000EB0074A016801F4E06111430160BFF34F8FF7
S31500000EC000BFFDE70200002000500E400CED00E0E0
S31500000ED00400FA054FF000504FF20F02418891428C
S31500000EE001D100887047002904BF0088012802D17B
S31500000EF040F2022070474FF4007070474FF00050E8
S31500000F000088704762B38B0708D0521E11F8013B68
S31500000F1000F8013B00F024808B07F6D1830740F0F0
S31500000F20208000BF103A07D330B4B1E83810103A29
S31500000F30A0E83810F9D230BC530724BFB1E8081036
S31500000F40A0E8081044BF51F8043B40F8043BD20720
S31500000F5024BF31F8022B20F8022B44BF0B78037014
S31500000F607047083A07D3B1E80810083A40F8043B3E
S31500000F7040F804CBF7D25307E4E7FEE7002200F07F
S31500000F80B9BDFEE72DE9F8431F46044678680028F8
S31500000F900D4616464CD015F0030018BF41F202006C
S31500000FA046D100F0C1FD216E001D721882421DD38C
S31500000FB000F11803994219D28446884238BF8C46FC
S31500000FC09A4288BF1A46ACEB0101ACEB000005EB78
S31500000FD00108A2EB0C0920444A4641466830FFF757
S31500000FE091FFFF224946404600F0B0FD00F0A1FD0A
S31500000FF0216E001D884222BF7218031D9A420DD32E
S31500001000411A05EB01080422414604F18000FFF76E
S3150000101079FFFF220421404600F098FD29463B68EF
S31500001020206E7D683246A847206E30182066002064
S31500001030BDE8F28330B54B688C689C4206D200F15D
S3150000104040021B1B14781B19412B01D3002030BD15
S31500001050537814788D68E3180C68645D03F03F03D9
S31500001060C4548B685B1C8B6013785B1C13704C68D4
S315000010708B68A342ECD3012030BD90F840004A684B
S3150000108089681018401A70472DE9F0410F4614463A
S3150000109098460546FFF7F1FF404505F1400607D2A1
S315000010A039462846FFF7C6FF00284DD0002049E004
S315000010B000200BE07178695C2154401C7178491C52
S315000010C001F03F0171703178491E3170317809B1F4
S315000010D04045EFD3B9687A68914238BF404507D298
S315000010E03A68515C2154401CB968491CB960F1E763
S315000010F0404529D1B26C4146204600F06DFDB064F2
S31500001100069820B1F0684246214600F07DFD07981A
S3150000111000281CBFF078002805D0B0684346224658
S31500001120214600F095FDF07838B1F069B169404488
S31500001130F061884224BF0020F070706940447061FD
S3150000114041F20300BDE8F0811220B07141F20200C5
S31500001150F8E7F0B585B004460020019000901546EA
S31500001160082302AA00F0BAFB41F20306B0423CD1C2
S3150000117094F8430004F1480738B100F038F83868AD
S31500001180082302AA02A900F063FD9DF80A109DF843
S315000011900B00090441EA00609DF8091040EA0120AD
S315000011A09DF80810084328609DF80E209DF80F1042
S315000011B0120442EA01619DF80D2041EA02219DF8E0
S315000011C00C201143696094F8431049B9DFF8A01662
S315000011D088421CBFDFF89C16884201D000F007F851
S315000011E06868B8600020F860304605B0F0BD7868E1
S315000011F0082202A900F008BDF8B5044604F140072C
S315000012000020B87138707870F870787138710D46B2
S3150000121003F02000B87016464FF0FF30B864FF2286
S31500001220002038627862182104F1680000F08EFC14
S31500001230FF22042104F1800000F088FCFF22042133
S3150000124004F1840000F082FCBD60FE600020C04610
S3150000125000B11DB10020C04618B116B941F20B000D
S31500001260F2BD16B1F86800F0C5FC0020F2BD000022
S315000012702DE9FA4F99B0044603A800210023002562
S315000012802AC01A98DDF890A00392049004F1420651
S3150000129004F1480741F203080DF120090EE000F0C1
S315000012A001FB40452CD10798DFF8CC15B86000202B
S315000012B0F8600698884270D10220307105981A9914
S315000012C0884280F0D18230791228F7D8DFE810F012
S315000012D014001500C900420117016401FB00570103
S315000012E064015201640152012A02C9029002A60257
S315000012F0A902D201C902E1E7D1E700F0D3FA4045DD
S3150000130040F0B382B07820B10698DFF868158842BD
S3150000131043E03078C0074BD57078002848D106984E
S31500001320DFF8541588421CBFDFF85015884222D0DA
S31500001330DFF84C1588421CBFDFF8481588421AD0E2
S31500001340DFF84415884222D0DFF82415884263D09E
S31500001350DFF83815884213D0DFF8341588420DD0EF
S31500001360DFF81015884215D0DFF8281588421CBF13
S31500001370DFF82415884200F0ED8011E00E209CE78E
S315000013800F203071B86838610020786196E7122026
S31500001390307163E00020C046002840F0DB8036E074
S315000013A01220307106A80020C046002856D0A9E1B8
S315000013B00698DFF8C81488421AD0DFF8C4148842A9
S315000013C014D0DFF8C014884214D0DFF8A414884281
S315000013D01FD0DFF8A014884212D0DFF8B814884274
S315000013E00CD0DFF8B414884206D017E0042064E776
S315000013F0062062E7072060E709205EE70B205CE72E
S315000014000020C046002804BF70780028C5D10C20F3
S3150000141053E770780028C0D110204EE706A80020B8
S31500001420C046A0B106987864112030710698002055
S31500001430C046054630788006A8D5002DA6D0696836
S315000014400800A3D02046884700289FD05AE11220E2
S315000014503071707810B141F2040006E241F20800E2
S3150000146003E2F868082831D200200190082300F032
S3150000147038FA4045F4D199F803000006B0F1407FF0
S3150000148004D01220307141F20900EEE199F805000E
S3150000149099F8041041EA00200290C00704D530787C
S315000014A040F00100307002E00020C04630B9002054
S315000014B0C0460028D5D00298C005D2D4122030717B
S315000014C041F20A00D1E1BB68F868984280F0C78112
S315000014D001200190009000F0FFF94045F2D11998E3
S315000014E01C2208A90830FFF71DFD19990120487034
S315000014F0E9E7052030710120F0700020F861F868F6
S315000015000828BFF4DBAE012001900090082300F00C
S31500001510E3F94045D6D11999DFF8802301200870F8
S3150000152000F0C4F9199948600020806A0168914268
S31500001530DFD199F8062099F80710C068120442EA2C
S31500001540016199F8052041EA022199F80420114326
S315000015508142CED012203071D4E0012000F0B9F9DA
S315000015604045AFD100F0A2F90290B868052824BF23
S315000015700298B861F8680428EFD30A209DE6002097
S31500001580F861082099E6DAF80030F8695A4608A9A1
S31500001590E047F8695844F861B868F968814295D21D
S315000015A0A0EB010BBBF1040F03A9204604D3FFF700
S315000015B064FD042804D26CE0FFF75FFD584568D34C
S315000015C0BBF1410F28BF4FF0400B00F07EF95845A4
S315000015D002D200F07AF98346BBF1040F24BF4FEA2A
S315000015E09B004FEA800B00F083F9404540F03D81B7
S315000015F03079072804D1DAF808C0BCF1000FC2D14F
S31500001600CBF10400BBF1040F009007D2014608A8F5
S31500001610FF22584400F09AFA0098834430790A2849
S3150000162006D153465A4608A92046FFF7ABFCB3E756
S315000016300528B1D1DAF80C000028ADD0F8690528E4
S3150000164012D20BEB000107290ED308A9091D081AAF
S3150000165000900146042204F18400FFF753FC009831
S31500001660FF22042100F072FADAF80030F869DAF89D
S315000016700CC08BE73078800634D5786C0020C046E5
S3150000168005002FD13EE04FF0010B00F01EF9584542
S3150000169004D203A92046FFF7CDFCE5E0B868F96857
S315000016A0A0EB010BBBF1410F28BF4FF0400B00F040
S315000016B00CF9834502D300F008F9834600F018F9C7
S315000016C0404521D1307880060CD5DDB1D5F808C06B
S315000016D0BCF1000F16D053465A4608A92046E047EB
S315000016E0002811D1F868B968884230780DD2800692
S315000016F0C9D5002DC7D029690800C4D0204688471F
S315000017008346C2E741F20100AFE0800609D5002D0D
S3150000171007D0EA68100004D05146204690470028BA
S31500001720F2D19CE0002000F0D4F8404507D1386C97
S315000017305B49884204D01220307141F2050094E0E2
S315000017400020C04618B919990120C87003E01998FD
S31500001750C078002846D0F07850B1DAF80C5028004E
S3150000176006D0DAF80030042204F184010420A847E8
S31500001770B86900281CBFDAF80400002832D04FF000
S31500001780FF30029004F180050422294602A800F0E9
S315000017906FFA50B100F0CDF938B12946DAF80030C9
S315000017A0DAF804500422001DA847042204F1680157
S315000017B002A800F05DFAA8B100F0B6F9DAF8003038
S315000017C0DAF80450142204F16C010830A84700F03E
S315000017D0ABF904F16801DAF80030DAF804400422C3
S315000017E0001DA0471999012088700D2030713BE03B
S315000017F0F868102833D200200190102300F071F809
S31500001800404532D100F06AFA80210090019101230F
S31500001810386809AA022100F0FCF9E9E70120707096
S315000018201DE0B078D8B901900090402300F054F83C
S3150000183040451AD1786800F0E9F9786810AA08A935
S3150000184000F054FA38B119990020C870122030718E
S3150000185041F2060009E019990120C870B070012014
S315000018602BE541F2070000E000201BB0BDE8F08F39
S31500001870F70A0AF7FC0404FCEB17A603F40A0AF4B9
S31500001880F50909F5F60808F6F70909F7F90707F95A
S31500001890FA0606FAFD0303FDFE0101FEAD1007B0D0
S315000018A0E320BBDE06AA03A9204652E499F80210FB
S315000018B099F80300090441EA006099F8011040EA2A
S315000018C001209DF820100843704703A92046FFF722
S315000018D0D4BB01900090042308AA03A92046FFF771
S315000018E0D3BB0120009008AA03A92046FFF7CCBB72
S315000018F00120019000905B4608AA03A92046FFF745
S31500001900C3BBFEE7890001EB401000F18440026092
S315000019107047DFF874104A68D20702D40A68024298
S31500001920FCD1704770B5020A0C4602F00F02002186
S31500001930521E092ADFF8545014D8DFE802F00514C5
S315000019401313071619131C20DFF83850C0F304369A
S3150000195011B10846FFF7DDFF224631462846BDE8AD
S315000019607040CFE770BD1035F0E730350121EDE767
S3150000197038351021EAE740354FF48031E6E7DFF8E5
S315000019801050E3E700400E4040410E40B0400E408C
S3150000199050410E403023254A584310440C3000F184
S315000019A0806006E03023214A584310440C3000F191
S315000019B0C060012202FA01F101607047F8B50446E1
S315000019C0164630000D461F4607D0002F204602D08F
S315000019D0FFF7E8FF01E0FFF7DDFF30210F22134894
S315000019E011FB04F1082D084405D2AB00416800F054
S315000019F015F8416006E0A5F108039B00816800F038
S31500001A000DF881604EB9002F2946204602D0BDE868
S31500001A10F440C7E7BDE8F440BCE7F1BD9A4021EACF
S31500001A20020206FA03F111437047000000A00040CD
S31500001A301FB52648016841F4801101606C462448B0
S31500001A40016841F00101016000F086F94FF47A71F6
S31500001A50B0FBF1F01F49800A48600FF288000FC8FA
S31500001A6084E80F000A208DF8020069461A4800F043
S31500001A70BBF91FBD30B5194A164C1369656805FBDD
S31500001A80003060809BB260889842AD41ED0F2570B2
S31500001A9011B111698142FCD101201060506030BD46
S31500001AA00C490F480A78002A026803D0D20705D4E9
S31500001AB000207047D20701D5012070478069498808
S31500001AC088428041C043C00F7047000000400E406E
S31500001AD0C0400E40201300200080014014800140C9
S31500001AE00C80014001000000000000000000000022
S31500001AF00000000000B500BF13009646944610395A
S31500001B0028BFA0E80C50FAD85FEA417C28BF0CC079
S31500001B1048BF40F8042BC90728BF20F8022B48BF4E
S31500001B2000F8012B00BDFEE740F6280000680069BA
S31500001B3070472820044A00680168914201D1006973
S31500001B407047002070470000AD1007B062F30F2207
S31500001B5062F31F42401810F0030308D0C91A1FD3BE
S31500001B60DB0748BF00F8012D28BF20F8022D13001F
S31500001B7030B414461546103928BF20E93C00FAD87F
S31500001B80490728BF20E90C0048BF40F8042D89000A
S31500001B9028BF20F8022D48BF00F8012D30BC704741
S31500001BA0C91818BF00F8012DCB0728BF00F8012D72
S31500001BB07047FEE70A0A484000F0FF000821430884
S31500001BC0C00746BF034858401846491EF7D1504043
S31500001BD0704700002083B8ED70B504460D461046E8
S31500001BE0002604E00146A05DFFF7E4FF761CAE4246
S31500001BF0F8D370BD10B5044600F0DEF92046BDE806
S31500001C001040002100F0DEB900F0F2B9014600F004
S31500001C1013BAF8B505460E4617461C4600F015FBE6
S31500001C20079A0699284600F016FB05F124000021C4
S31500001C30016006750C22394605F13900FFF762F995
S31500001C4005F14500210C01708470210A4170F1BD37
S31500001C5010B584B01C460191029200F12801009152
S31500001C6000F1380300F12402214600F011FB1FBDEC
S31500001C700300002013F0030F09D0521E22BF13F8F1
S31500001C80010B11F801CBB0EB0C00F3D07047121F1B
S31500001C9022BF53F8040B51F804CB6045F7D0121D50
S31500001CA00AD200BA9CFA8CFCB0EB0C0038BF6FF07D
S31500001CB0000088BF01207047521E22BF13F8010B97
S31500001CC011F801CBB0EB0C00F6D0521C08BF104641
S31500001CD07047FEE70248704702487047024870475F
S31500001CE04A43E00F6A43E00F8642E00F70B50400F6
S31500001CF00D4618BF002DA2B0164600D016B940F208
S31500001D00016023E001211248FFF70CFE402111A8D3
S31500001D10FFF734F9FFF7DEFF014611A800F048FE91
S31500001D20FFF7DAFF014619A800F042FE294601A88E
S31500001D3000F03EFE314609A800F03AFE01A80090E8
S31500001D4011AB20222146034800F041FE22B070BDAF
S31500001D500015080000000F40184919480A6802F0EB
S31500001D600702022A09D00AD3042A01D002D306E0C8
S31500001D70406805E04FF4004002E0006800E080683B
S31500001D80C96EC1F30421491CB0FBF1F070470D4840
S31500001D90016841F4700101600B48416941F400514A
S31500001DA041610168890889000160416B4908490061
S31500001DB04163016A21F080510162704794400E40F0
S31500001DC01001002088ED00E040300E4004498842B2
S31500001DD01CBF0449884201D101207047002070478A
S31500001DE000800140008401402DE9F84304460D4679
S31500001DF0FFF7ECFF2878010004BF02216160002193
S31500001E006162697801B140216A7A02B18022AB7AB7
S31500001E1003B12023EE7A06B1102695F8049095F8C2
S31500001E2005C095F80CE0EF7895F80280B9F1000F3F
S31500001E3018BF4FF40059BCF1000F18BF4FF0805C7B
S31500001E40BEF1000F18BF4FF0080E3F0447EA0868BE
S31500001E50AF7948EA8728EF792D7A48EA07273D4384
S31500001E60294311431943314349EA01014CEA01016F
S31500001E704EEA0101216008B101206060BDE8F183EE
S31500001E8010B54A688B68CC68096801600260036017
S31500001E90046010BD10B502680368046800680A6033
S31500001EA08C604B60C86010BD38B504460D46FFF720
S31500001EB0E7FF05F110012046FFF7E2FF05F12001DB
S31500001EC02046FFF7DDFF05F130012046BDE834402E
S31500001ED0D6E72DE9F04F91B08046894616461C4656
S31500001EE000F0F3FE074614B1012C26D05DE0002079
S31500001EF0386000207860F864786820F44060786084
S31500001F0000203863786300F0F5FE04464FF48270D3
S31500001F103D1841462846FFF7B3FF08F11001284651
S31500001F20FFF7AEFF204600F0E9FE214838650025A0
S31500001F304FF4D27007EB000A0EE00420D8E700F059
S31500001F40D9FE044659465046FFF7AEFF204600F03C
S31500001F50D5FE184838656D1CB54211D209EB851BB4
S31500001F601BF00300EBD0402259466846FEF7CAFF35
S31500001F7000F0C0FE044669465046FFF795FFE5E7C8
S31500001F8000F0B8FE04464FF480703E1841463046D5
S31500001F90FFF780FF08F110013046FFF77BFF204670
S31500001FA000F0ACFE384600F099FE11B0BDE8F08FA7
S31500001FB0888AC801070D810100281CBF6C21FEF725
S31500001FC0DDBF704700F1200200231360536031B17A
S31500001FD0012180F8681020220FF2541104E080F8E5
S31500001FE0681020220FF22811FEF79CBF01238CE017
S31500001FF02DE9F0411600044688461BD000F063F830
S31500002000A7B1AE4212D300F059F804F128012046D8
S31500002010FFF7ECFFA844761B002707E0B50901236C
S3150000202000F048F808EB8518A6EB8516402EF5D289
S3150000203006B155E0BDE8F0817CB5044604F1200008
S315000020400D4642680168D20042EA51728DF80320BB
S31500002050C900130E8DF80030160A130C0A0E8DF8FF
S3150000206004208DF801300A0C8DF805208DF80260E9
S315000020700A0A8DF806208DF80710007800F038F867
S3150000208034BFC0F13802C0F178022046FFF7B0FF36
S31500002090082269462046FFF7ABFF002001E000F06A
S315000020A02DF894F86810002914BF1C2120218842BD
S315000020B0F5D373BD2A46414620460AE7E0192A466B
S315000020C02830FEF71FBF206A00F03F073018B042E5
S315000020D0C7F14005206202D2606A401C6062704708
S315000020E032464146E019BDE8F0412830FEF70ABF06
S315000020F00FF25C0100F03F0038287047810854F861
S31500002100211009BA2950001D70470122E1E600009E
S3150000211067E6096A85AE67BB72F36E3C3AF54FA572
S315000021207F520E518C68059BABD9831F19CDE05B9E
S31500002130D89E05C107D57C3617DD703039590EF7A4
S31500002140310BC0FF11155868A78FF964A44FFABE6A
S3150000215080000000000000000000000000000000F9
S315000021600000000000000000000000000000000069
S315000021700000000000000000000000000000000059
S315000021800000000000000000000000000000000049
S31500002190890001EB401000F184400260704710B5E1
S315000021A04A688B68CC680968016002600360046055
S315000021B010BD10B502680368046800680A608C6088
S315000021C04B60C86010BD38B5102A04460D460ED1C6
S315000021D001220021FFF7DCFF4FF4887004442946F2
S315000021E02046FFF7DCFF05F11001204606E000223D
S315000021F00021FFF7CDFF294604F12400BDE8344055
S31500002200CDE71FB50C4614F0030108D06946FFF769
S31500002210D0FF102269462046FEF774FE1FBD2146F8
S31500002220FFF7C7FF1FBD1FB5044611F0030008D016
S3150000223010226846FEF766FE69462046FFF7AFFFA6
S315000022401FBD2046FFF7ABFF1FBD00281CBF242182
S31500002250FEF794BE704770B504000D4618BF002DFA
S31500002260164602D16FF0210070BD2421FEF786FECE
S31500002270802E18BFB6F5807F02D06FF01F0070BDAC
S315000022802660F2082946201DFEF73CFE002070BDA0
S315000022902DE9FF4F81B0002A14BF176800270024DC
S315000022A000281CBF0F9D002D0AD0DDF84090B9F123
S315000022B0000F1EBF002BDDF83880B8F1000F02D1E9
S315000022C06FF0210070E00068802818BFB0F5807FAD
S315000022D004D06FF01F0067E000F069F802988442AE
S315000022E05ED2002FF8D100F0F0FC064600207060A8
S315000022F04FF0000B4FF44040306000F0FBFC82468C
S3150000230001980068802801980CBF08221022011D40
S315000023103046FFF758FF049906F18400FFF783FF64
S3150000232000F050F80298001B0009009014E000F03D
S315000023304CF80BF1010B00F0DDFC8246291906F181
S31500002340A000FFF770FF09EB040106F18000FFF71C
S3150000235058FF00F037F8103400988345E7D3029809
S31500002360001B0FD05FB900F030F800F0C3FC8246C6
S31500002370414606F18000FFF744FF00F023F800F025
S3150000238016F8ECE700F0B6FC8246049906F18400E4
S31500002390FFF737FF00F016F8304600F09FFC9DE788
S315000023A0039800B10760002005B0BDE8F08F285DF6
S315000023B018F80710484009F80400641C781C00F05F
S315000023C00F077047504600F099BC4820B0600520C2
S315000023D0B06030698007FCD40320B0607047FEE728
S315000023E010B54A688B68CC680968016002600360B2
S315000023F0046010BD10B502680368046800680A60CE
S315000024008C604B60C86010BD38B504460D46FFF7BA
S31500002410E7FF05F110012046BDE83440E0E738B596
S3150000242004460D46FFF7E6FF05F110012046BDE81C
S315000024303440DFE78C220FF2F87150430844007AEB
S3150000244070478C220FF2E87150430844407A704777
S3150000245010B500F010F8BDE8104000F10C0106E0E0
S3150000246010B500F008F8BDE8104000F12C0120225C
S315000024701846FEF747BD0B468C240FF2B471604335
S3150000248008447047F8B504460D46164600F032FC7F
S3150000249007464FF4847029462044FFF7B5FF4FF4F2
S315000024A0867031462044FFF7AFFF384600F026FC21
S315000024B0DFF8E8062065012060656069000E00F01F
S315000024C0010080F00100F2BD2DE9F04F89B004460D
S315000024D088469246994600F00DFC83464FF482707A
S315000024E0271808F1400100F08AF94FF48670251884
S315000024F0514600F025F94FF4887026180AF120019C
S315000025003046FFF781FF00F023F900F024F98346F7
S31500002510414600F074F94FF4847004EB000A08F1A8
S31500002520200100F013F908F140013046FFF76CFF77
S3150000253000F00EF9DFF868062065DFF8680600F09F
S315000025404BF883464FF48070261809F1400100F0DD
S31500002550F4F869465046FFF762FF00F0F9F800F01C
S31500002560C9FB834600F0EBF800F0F2F8DFF8380616
S315000025702065DFF838066065DFF8340600F0F3F80A
S31500002580054600F03AF900F0DDF8DFF82806206588
S31500002590DFF8240600F020F8054649465046FFF7C6
S315000025A03EFF00F0CFF800F0A5FB05466946384629
S315000025B0FFF72AFF00F0C6F8DFF800062065DFF80F
S315000025C0000600F009F8044600F0B5F8204600F0D1
S315000025D095FB09B0BDE8F08F60650120A06500F0AD
S315000025E089BB2DE9F04F99B004468846914600F024
S315000025F081FB05464FF48270271800F0FEF800F0C4
S31500002600A1F8DFF8C0052065DFF8BC056065DFF8D6
S31500002610BC05FFF7E3FF06464FF48070251808A9AE
S3150000262000F002FB00F0E6F800F064FB064600F05E
S3150000263086F800F0DFF8DFF898052065DFF89405E6
S3150000264060654FF48670FFF7C9FF82464FF48670C7
S31500002650261810A93046FFF7E2FE694600F0E4FAB4
S31500002660504600F04BFB00F045FB824608F1400166
S3150000267000F0C5F8504600F041FBDFF85C05206528
S315000026800120606500F036FB83464FF4847004EB4E
S31500002690000A414600F05AF800F05AF8DFF83C0507
S315000026A02065DFF83C056065DFF8380500F05BF86B
S315000026B0834669465046FFF7A7FE10A93046FFF746
S315000026C0A3FE00F045F8DFF820052065DFF81C05BD
S315000026D06065DFF81C05FFF781FF83464FF48870BD
S315000026E049462044FFF79BFE00F032F800F002FB5B
S315000026F0834600F082F808F1400100F027F808A9A7
S315000027003046FFF781FE00F023F8DFF8E804206585
S31500002710DFF8E404606500F0EDFA044609F14001D3
S315000027202846FFF77CFE00F006F8204600F0E6FAA1
S3150000273019B0BDE8F08F09F1200130466FE6414639
S31500002740284661E6284600F0D9BA314650465BE68F
S31500002750584600F0D3BADFF86C042065DFF89C0415
S315000027606065DFF89C04A0650120E06500F0C2BA50
S315000027702DE9F04105460F461C469046202120468D
S31500002780FEF7FCFB0120206000F0B4FA06464FF489
S31500002790807041462844FFF737FE4FF48270394671
S315000027A02844FFF731FE4FF484702F18214600F0BD
S315000027B026F800F01FF8DFF84C0428650BE0DFF878
S315000027C048042865DFF844046865DFF84404A86512
S315000027D0DFF84004E8656869C001F0D500F08AFAC0
S315000027E0054621463846FFF71AFE2846BDE8F04161
S315000027F000F084BA304600F081BA08F1200138466C
S3150000280002E650F8043B934203D007E050F8042B4D
S3150000281022B9091F0129F9DA012070470020704703
S315000028202DE9F04188B004460E461546984620210B
S315000028306846FEF7A3FB0120009020210E9F384634
S31500002840FEF79CFB202107F12000FEF797FB2021D5
S3150000285007F14000FEF792FB3046FFF7EBFD00F074
S31500002860A3F800F09CF88C210FF2C43011FB06F19E
S3150000287008444068461E00E0761E012E16DB00F076
S315000028803EF8F9D512E0202229463846FEF74AFBE3
S31500002890202205F1200107F12000FEF743FB20224C
S315000028A0694607F14000FEF73DFB761E002E23D455
S315000028B03A4639462046FFF794FE00F020F8F4D554
S315000028C0002220213846FFF79CFF70B1002220210C
S315000028D007F12000FFF795FF38B10022202107F10C
S315000028E04000FFF78EFF0028CDD13B462A463946E9
S315000028F02046FFF7E9FDD8E708B0BDE8F0813011C2
S3150000290006EBD060401158F82010A6EB4010C140ED
S31500002910C80770472DE9F04104460F4690B01646A9
S315000029201D463846FFF786FD00F03EF800F037F802
S3150000293069463846FFF78CFD08AB6A4606F140014A
S315000029402046FFF715FF00F0D5F980464FF4827058
S3150000295008A92044FFF758FD4FF486702718314622
S31500002960FFF74DFF4FF4887006F120012044FFF772
S315000029704BFD404600F0C2F9FFF7EDFE06464FF468
S31500002980807005F120012044FFF749FD29463846AD
S31500002990FFF745FDFFF72EFF10B0BDE8F0810020E0
S315000029A020602063606370470146204600F0AAB9A4
S315000029B038B50D4604462021FEF7E0FAFFE71F2052
S315000029C04242295C2244401ED177F9D531BD2DE91A
S315000029D0F04F0F00984618BFB8F1000FB9B0044683
S315000029E0154603D0429E0EB1012D02DA40F2016077
S315000029F0D1E0FFF7D4FF606840F01000606000206F
S31500002A00FFF71FFDFFF7D0FF606820F4406040F439
S31500002A100060606009A9606820F4407040F40070AE
S31500002A2060600020FFF71CFD09AA31462046FFF72B
S31500002A3029FD30B909AA06F120012046FFF722FD3B
S31500002A4010B140F20260A6E0212DA8BF202520216A
S31500002A5011A8FEF793FA002014E02A1A521E01A9C3
S31500002A609208A5F1010C01EB8201ACEB000C3B5C7A
S31500002A700A6C4FEACC0C0CF0180C03FA0CF31A4350
S31500002A800A64401CA842E8DB00F034F905464FF41E
S31500002A908470271811A93846FFF7B6FCFFF752FED7
S31500002AA05D48206500F026F981464FF480702518B0
S31500002AB011A900F0B9F8484600F020F919AB09AAA7
S31500002AC006F120012046FFF753FE00F013F9834676
S31500002AD04FF4827019A92044FFF796FC4FF48870D2
S31500002AE004EB000911A94846FFF78EFC4FF48670E7
S31500002AF004EB000AFFF729FEFFF72AFE4748206588
S31500002B004748606500F0F6F8834611A94846FFF786
S31500002B1086FC19A900F088F8FFF71AFE21A8009094
S31500002B2011AB0FF2581200212046FFF779FE01A8DB
S31500002B30009019AB424600212046FFF771FE21ABFB
S31500002B4021AA00212046FFF7E5FE01AB21AA01A933
S31500002B502046FFF7B9FC01AB01AA00212046FFF78A
S31500002B60D9FE00F0C7F805460020FFF76AFCFFF71C
S31500002B701BFF01A93846FFF747FCFFF7E6FDFFF705
S31500002B80E1FD28482065234860656069C0014CBFA7
S31500002B90002040F2046039B0BDE8F08F3035DA101D
S31500002BA0D01482CB1481E11C8CE11C811C84D91CBD
S31500002BB08391D11CE014D8141482E11C84D31482AE
S31500002BC0D11CE0148AD11C81821CC00C0C0C0100A3
S31500002BD0C00C0C83D91C83D88AD11C83DA0C8114CF
S31500002BE082D11C81C80C0C818CE11CD01484E314A6
S31500002BF082D11C01D81483D11CC00C01D91C83D1ED
S31500002C001C81E11C39398401D02484FC1C82FED845
S31500002C108B1C81A03938010030D00C0130E11C84B6
S31500002C2030D91C013035DA142846FFF7F8BB00000E
S31500002C302000000000010000050C0000FFFFFFFF60
S31500002C40FFFFFFFFFFFFFFFF000000000000000086
S31500002C500000000001000000FFFFFFFF512563FC9C
S31500002C60C2CAB9F3849E17A7ADFAE6BCFFFFFFFF01
S31500002C70FFFFFFFF00000000FFFFFFFF96C298D88E
S31500002C804539A1F4A033EB2D817D0377F240A4638F
S31500002C90E5E6BCF847422CE1F2D1176BF551BF3798
S31500002CA06840B6CBCE5E316B5733CE2B169E0F7C6B
S31500002CB04AEBE78E9B7F1AFEE242E34F890001EB67
S31500002CC0401000F184400260704780B5FFE70122A2
S31500002CD001210648FFF7F2FF054802BD0449884274
S31500002CE003D1002201210148E8E77047B0400E40B9
S31500002CF000000F40EFF3108072B6704700B962B65D
S31500002D007047FEE742685209042941EA421209D98E
S31500002D10491F022908D9C91E032903D9091F0229F7
S31500002D2002D970474260704742F010014160704717
S31500002D3038B5174C206840F00400206001230422B7
S31500002D4000F02AF8002001E00098401C009000984E
S31500002D506428F9DB0123022200F01EF8002001E0BE
S31500002D600098401C00900098B0F5FA7FF8DB0948FF
S31500002D700068012814BF012500250123002200F068
S31500002D800BF8206820F004002060284632BD0000C1
S31500002D90B0400E40B81514420E210320FEF70EBEB9
S31500002DA04FF40170FEF774F800BF4D484D490068B6
S31500002DB0086082B04C480068040E684600F0A4F82B
S31500002DC08F2C10DA49484A4C016841F0040202602F
S31500002DD04FF05013002230255543521C6351062AEA
S31500002DE0F9D3016001E0902C06DA42480168C9096E
S31500002DF0C90141F0200101609DF80100012804D1BC
S31500002E003D48016841F00401016000203B4908602B
S31500002E100020C046FEF737F8FDF732FDFDF732FD1C
S31500002E20C0B9FDF751FD0446C046C046002C1ABF86
S31500002E3040F20370844240F2012009D040F205704E
S31500002E4084421CBF40F20670844203D140F2032044
S31500002E50FEF71EF84FF40170FAE7000038B528486F
S31500002E60016801240125B1F5803F08BF002512D075
S31500002E70006840050AD5FEF72DF840F20221401AF7
S31500002E8007D0C01E05D0C01E012802D9FFF750FF8B
S31500002E9008B10024002544F20400006810F1010F77
S31500002EA006D1BDE832404FF40270FDF7E5BF31BDF3
S31500002EB02DB14FF4804000F09DF80400F1D0002CB5
S31500002EC0F5D010494FF4804008600246104601686C
S31500002ED081F3088881F3098840688746FEE7000089
S31500002EE0180100201C010020FC81E00FB0400E40BC
S31500002EF000A000402C400E4064310E40B40AC64388
S31500002F0004500E4008ED00E00B494A680B68920039
S31500002F1002F03C02C3F381131A4382700A6802F07E
S31500002F203F0242708A68C96802F0F002C1F30311D9
S31500002F301143017070470000E0FF0FE02DE9F041FA
S31500002F40044640F6280088460068016916468C4209
S31500002F5022BF37194069B84216D3E00AB4EBC02045
S31500002F6004BF204600F0F0F804F50060C50AED0243
S31500002F7004E0284600F0E8F805F50065BD42F8D300
S31500002F8032464146204631E0BDE8F0812DE9F04168
S31500002F908846282115460968394B0A689A4223D182
S31500002FA00969461840F62801AF1909684A69BA4204
S31500002FB01AD310B9086900F0C7F8F00AB6EBC020BA
S31500002FC004BF304600F0C0F806F50060C40AE4020B
S31500002FD004E0204600F0B8F804F50064BC42F8D3DB
S31500002FE02A464146304601E0BDE8F081BDE8F041A1
S31500002FF000F0D4B850B585B0044668460FF200110B
S315000030001022FDF78FFF22686068616B02F1604253
S31500003010B2F5F84F2AD840F6280212681269904293
S3150000302024D3184B984221D202F1400081420E4629
S3150000303001D3994205D30020C046401E8041C00FEF
S315000030401BE00020C04698B900F054F8A0B970699A
S3150000305090B102280CD1B069001D011B4FF0FF3260
S315000030602046FEF7B9FD0849884205D0002004E055
S31500003070204600F00BF800E0012005B050BD00002E
S31500003080AD1007B001000400E320BBDE50B59FB0D1
S31500003090044668460FF278011022FDF743FF666B7F
S315000030A000F028F818B9706901280BD1B66940F606
S315000030B0280000680069864228BFA64202D3B6F5FA
S315000030C0802F01D9002013E004A8FEF793FD321BE0
S315000030D0214604A8FEF798FD04A8FEF797FD06F121
S315000030E02002314604A8FEF701FE401E8041C00FB3
S315000030F01FB050BD102269463046FEF7B9BD00002C
S3150000310013B779FAC925DDB7ADF3CFE0F1B614B838
S3150000311013B779FAC925DDB7ADF3CFE0F1B614B828
S31500003120084841F671318163016849084900016028
S31500003130704704480168490849000160002181631D
S315000031407047000008000E4010B50446FFF7E8FF80
S31500003150204600F0F3F80446FFF7EBFF601E8041BF
S31500003160C00F10BD10B58408800782B005D50804CD
S3150000317040F47F4040F0FF0003E041F07F4040F420
S315000031807F000090FFF7CCFF04226946A00000F004
S315000031900BF90446FFF7CDFF204616BD2DE9F04199
S315000031A004460E46154604F0010005F001010843E9
S315000031B028D12DB3A00707D536F8021B2046FFF706
S315000031C0D1FFF8B9A41CAD1E042D13D3AF08FFF729
S315000031D0A7FFBF003A463146204600F0E5F8804694
S315000031E0FFF7A7FF3C19ED1B7808B8F1000F06EBB7
S315000031F0400607D125B131882046FFF7B3FF08B94D
S31500003200012000E00020BDE8F08100006849694A1D
S3150000321001E021B1491E1369DB07FAD401B9BAE00E
S31500003220506001201060106910F0060F05D04107AC
S3150000323000D5B3E0800700D5B3E000207047F0B5B5
S3150000324013460022002936D0594C5A4D8BB98B4271
S3150000325031D250F8046BEE605B1C08262E602646C1
S3150000326001E036B3761E2F69FF07FAD4002EEED1A1
S315000032701FE0EFF3108672B600230EE02F6907F009
S315000032801907102F08BF2F602F693F07F6D550F892
S31500003290047BEF605B1C10272F608B42F4D306B9CA
S315000032A062B6264601E026B1761E2869C007FAD422
S315000032B00EB96FF002021046F0BD2DE9F84F3B4FF4
S315000032C00D4639680446002041F001019B463960ED
S315000032D04FEA92088146AA4602E0B1440AEB860A02
S315000032E0C14517D204EB89063046FFF78FFF010070
S315000032F022D1C6F30A00C0F500608608A8EB0900D3
S31500003300B04238BF06465A4631465046FFF797FF49
S315000033100100E2D021682A68914209D02046FFF7D1
S3150000332075FF010004D15A4601212846FFF787FFA1
S315000033303968490849003960BDE8F28F1B491C4AC3
S315000033400B6843F001030B60886001204860486900
S31500003350400704D508684008400008601EE0486938
S31500003360800704D5086840084000086019E002207C
S31500003370486001E022B1521E4869C007FAD422B95A
S31500003380086840084000086005E0086840084000FA
S315000033900860002070476FF0020070474FF0FF3062
S315000033A070476FF001007047002386E708000E4063
S315000033B0809698000C000E404EF68851CEF2000121
S315000033C0086840F470000860BFF34F8FBFF36F8F3B
S315000033D04FF00070E1EE100A704700000120C04671
S315000033E0002801D000F008F80020AFF30080FFF7B6
S315000033F0DCFC00F015F8000010B5074979441831D7
S31500003400064C7C44163404E00A68081D11448847BB
S315000034100146A142F8D110BD300100004C01000068
S3150000342000F000B80746384600F002F8FBE7000057
S315000034302021090326311820ABBEF9E7002070478A
S315000034400020704780B5FEF7A2FCFFF707FDBDE838
S31500003450014000F000B8AFF30080FFF7ADFFFFF7C3
S31500003460BDFF10B5B1F5BC7F044602D240F205207F
S3150000347010BD4FF4BC71FDF781FD04F1FC0204F1AF
S31500003480B40104F12400BDE810400023FDF7B4BEEA
S3150000349010B582B00446009104F124002146FDF7E0
S315000034A0E7FE00281CBF41F207018842C4F87401F8
S315000034B00CD1A01C017839B1407810B140F203203C
S315000034C016BD40F2022016BD40F2012016BD19E0DD
S315000034D050F8041BCB0744BFA9F101035918121F6A
S315000034E00023042A41F8043BF9D25FEA827C0B46AA
S315000034F004D54FF0000CA1F800C09B1CD10744BFB7
S315000035000021197050F8042B002AE1D1704730B51C
S31500003510016842688468014401EB5203D20748BF40
S315000035204C44994201D10C3030BD11F9012B11F8F0
S31500003530015B002A04F8015B02D5521CF9D1F0E7C1
S31500003540521EF4D5EDE7000087FFFFFF0C020000D6
S315000035502011002000000000B7FFFFFF0C00000054
S31500003560440000008000002081000C00F07F103035
S315000035708000002034000140FB000EF0490200806C
S315000035800000C0EA2101C0EA21010000000000009D
S5030339C0
S70500000000FA
