S020000066697273745F73746167655F62746C5F6566783332786731312E73333750
S11300009004002095050000DD050000E1050000D6
S1130010E5050000E9050000ED0500000000000012
S11300200000000000000000AC050000F105000025
S1130030F505000000000000F9050000FD050000C2
S11300406849694A01E021B1491E1369DB07FAD402
S113005001B9BAE0506001201060106910F0060F79
S113006005D0410700D5B3E0800700D5B3E00020F8
S11300707047F0B513460022002936D0594C5A4D2A
S11300808BB98B4231D250F8046BEE605B1C0826AE
S11300902E60264601E036B3761E2F69FF07FAD498
S11300A0002EEED11FE0EFF3108672B600230EE0AF
S11300B02F6907F01907102F08BF2F602F693F071A
S11300C0F6D550F8047BEF605B1C10272F608B4241
S11300D0F4D306B962B6264601E026B1761E286935
S11300E0C007FAD40EB96FF002021046F0BD2DE934
S11300F0F84F3B4F0D4639680446002041F001019A
S11301009B4639604FEA92088146AA4602E0B14410
S11301100AEB860AC14517D204EB89063046FFF77D
S11301208FFF010022D1C6F30A00C0F500608608E3
S1130130A8EB0900B04238BF06465A46314650463D
S1130140FFF797FF0100E2D021682A68914209D0A5
S11301502046FFF775FF010004D15A4601212846C5
S1130160FFF787FF3968490849003960BDE8F28F15
S11301701B491C4A0B6843F001030B608860012093
S113018048604869400704D5086840084000086092
S11301901EE04869800704D50868400840000860EC
S11301A019E00220486001E022B1521E4869C007EC
S11301B0FAD422B9086840084000086005E00868DD
S11301C0400840000860002070476FF0020070474C
S11301D04FF0FF3070476FF001007047002386E74F
S11301E008000E40809698000C000E40084841F626
S11301F0713181630168490849000160704704480E
S113020001684908490001600021816370470000CA
S113021008000E4010B50446FFF7E8FF2046FFF73C
S1130220A7FF0446FFF7EBFF601E8041C00F10BD1F
S113023010B58408800782B005D5080440F47F40D7
S113024040F0FF0003E041F07F4040F47F00009065
S1130250FFF7CCFF04226946A000FFF7BFFF044666
S1130260FFF7CDFF204616BD2DE9F04104460E46AA
S1130270154604F0010005F00101084328D12DB30F
S1130280A00707D536F8021B2046FFF7D1FFF8B9BF
S1130290A41CAD1E042D13D3AF08FFF7A7FFBF00A6
S11302A03A4631462046FFF799FF8046FFF7A7FFFD
S11302B03C19ED1B7808B8F1000F06EB400607D196
S11302C025B131882046FFF7B3FF08B9012000E0CB
S11302D00020BDE8F081000070B52820016808699D
S11302E0CC68826AA24222D304F560518A421ED2AB
S11302F0111B4518224A2968914218D1E968214EF8
S11303004FF0FF3200F052F8B04210D140F628000E
S11303100068AA688168914207D3C1684FF0FF3230
S1130320204600F043F8B04201D0012070BD002007
S113033070BDF8B5282000680569C468A86A001B68
S11303402E18274604E03846FFF764FF07F50067D8
S1130350F26810198742F6D329462046FFF784FF36
S113036040F628004FF0FF320068C168204600F0D4
S11303701DF80449884201D00020F2BD0120F2BDDD
S113038007B0CD5EE320BBDE0A0A484000F0FF0060
S113039008214308C00746BF034858401846491E71
S11303A0F7D15040704700002083B8ED70B5044683
S11303B00D461046002604E00146A05DFFF7E4FF69
S11303C0761CAE42F8D370BD154816490068086023
S11303D0FFF7AFFF0028FBD040F2022000F028F81E
S11303E000BF80B500F044F80F490968B1F5803FBB
S11303F00AD040F20921884218BFB0F5007F03D12A
S1130400FFF76AFF00B101BD08494FF400600860BE
S1130410016881F3088881F3098840688047FEE712
S1130420880000208C00002004500E4008ED00E0FD
S11304304FF0005108804FF20F00488009480168CE
S113044021F4E06141F480610160BFF34F8F0648FD
S1130450064A016801F4E06111430160BFF34F8F64
S113046000BFFDE700500E400CED00E00400FA056B
S11304704FF000504FF20F024188914201D10088A1
S11304807047002904BF0088012802D140F20220ED
S113049070474FF4007070470B48016841F47001D5
S11304A001600A48416941F40051416101688908C9
S11304B089000160416B490849004163016A21F0E8
S11304C0805101627047000088ED00E040300E402A
S11304D010B450F8041B79B1026843680244083030
S11304E0DC0744BFA9F10104E31852F8044B43F8B4
S11304F0044B091FF9D1ECE710BC704710B507494C
S113050079441831064C7C44163404E00A68081D0A
S1130510114488470146A142F8D110BD2C000000C7
S11305203C0000004EF68851CEF20001086840F409
S113053070000860BFF34F8FBFF36F8F4FF00070F0
S1130540E1EE100A7047000089FFFFFF1000000071
S11305507000000080000020000000000120C04660
S1130560002801D0FFF7CAFF0020AFF30080FFF797
S11305702BFF00F000F800F001B8000007463846F1
S113058000F002F8FBE700002021090326311820BF
S1130590ABBEF9E70248804702488047024800475B
S11305A099040000E3030000D1050000AD1007B07A
S11305B001000000000005010008000000800000A8
S11305C000F0490200800000C0EA2101C0EA2101D4
S11305D0AFF30080FFF7A6FFFFF7C0FFFFF7FEBFF2
S11305E0FFF7FEBFFFF7FEBFFFF7FEBFFFF7FEBF3B
S11305F0FFF7FEBFFFF7FEBFFFF7FEBFFFF7FEBF2B
S90305D126
