S021000066697273745F73746167655F62746C5F65666D333274673131622E733337FC
S3150FE100000A4880F308880A4800470000000000000C
S3150FE1001000000000000000000000000000000000EA
S3150FE1002000000000000000008C05E10F90040020A5
S3150FE100307505E10F10B56C4901226C4B02E0002901
S3150FE1004005D0491E1C691440F9D1002901D10220BE
S3150FE100500CE058601A6018690621014008D0410783
S3150FE1006001D5002002E0800702D50120C04310BD73
S3150FE10070002010BDF3B500230021019C002C3ED0DA
S3150FE10080594C5A4D002A13D1019A934237D202683D
S3150FE10090EA60001D5B1C08222A60220002E0002AAA
S3150FE100A02BD0521E2E69F607F9D4002AECD124E0A3
S3150FE100B0EFF31082009272B60EE02E6919273740E0
S3150FE100C0102F00D12A6010222E693607F5D5066862
S3150FE100D0EE602A60001D5B1C019A9342F3D30098F0
S3150FE100E0002800D162B6220002E0002A05D0521E96
S3150FE100F02869C007F9D4002A01D10221C9430800B2
S3150FE10100F6BDF9B581B000240020354B1D681B689B
S3150FE10110344F3B6801251D433D60920800920E0066
S3150FE1012002E06419A900761800998C4219D2019858
S3150FE10130A10045182800FFF77DFF010015D1F80C46
S3150FE101406905490D401A85080098001BA84200D29F
S3150FE1015005006846027A29003000FFF78BFF0100A0
S3150FE10160DFD03968012291433960FEBD30B51E49B2
S3150FE101701B4A1368126801221A4B1C6814431C6050
S3150FE1018098605A600120C0435C69640704D5196819
S3150FE1019008401860002016E002245D69254004D06E
S3150FE101A019680840186001200DE05C6002E0002943
S3150FE101B005D0491E5C691440F9D1002905D11968AA
S3150FE101C0084018600220C04330BD19680840186026
S3150FE101D0002030BD80B50023FFF793FF02BD00007D
S3150FE101E004300E4008000040809698000C00004055
S3150FE101F01B481C49816301680122914301607047E5
S3150FE10200174801680122914301600021816370471C
S3150FE1021010B50400FFF7ECFF2000FFF7A7FF04007E
S3150FE10220FFF7EEFF601E8041C00F10BD10B582B023
S3150FE102308408A400800704D508040B490143009103
S3150FE1024002E00A4808430090FFF7D2FF042269460D
S3150FE102502000FFF7BFFF0400FFF7D2FF200016BD16
S3150FE1026008000040711B0000FFFF00000000FFFFC8
S3150FE10270F8B5050014000E00C107C90FD207D20F5A
S3150FE102800A432ED1002C2AD0A80708D53188280099
S3150FE10290FFF7CCFF002824D1AD1CA41EB61C042CFD
S3150FE102A015D3A00880000090FFF7A2FF009A310056
S3150FE102B02800FFF78FFF0700FFF7A2FF009840081E
S3150FE102C04000361800982D18241A002F09D1002C5A
S3150FE102D005D031882800FFF7A9FF002801D10120B9
S3150FE102E0F2BD0020F2BD0000F8B5294801680869A2
S3150FE102F0826ACF68BA4222D38021C90179188A422C
S3150FE103001DD2D11B0C182168224A914217D1224ED8
S3150FE103100025ED432A00E16800F054F8B0420ED112
S3150FE103201E4800688168A268914206D32A00C16817
S3150FE10330380000F047F8B04201D00120F2BD0020AD
S3150FE10340F2BDF8B512480068C4680769B86A001BC0
S3150FE10350C519260005E03000FFF75AFF802000019E
S3150FE103603618EA68A0188642F5D339002000FFF760
S3150FE103707FFF0022D24309480068C168200000F0E0
S3150FE1038021F80549884201D00020F2BD0120F2BDD6
S3150FE103902800E10F07B0CD5EE320BBDE2808E10FB1
S3150FE103A00A0A4840C0B208214308C00702D50448EB
S3150FE103B0584000E01800491EF6D150407047000042
S3150FE103C02083B8ED70B506000C001000002504E09F
S3150FE103D00100705DFFF7E4FF6D1CA542F8D370BD18
S3150FE103E0184800681849086018484021C16001683B
S3150FE103F04903FCD4FFF7A5FF0028FBD0144800F012
S3150FE1040031F800BF80B500F042F812490968802241
S3150FE10410520291420AD01049884202D009398842E4
S3150FE1042004D1FFF761FF002800D001BD0B480C494D
S3150FE104300860016881F3088881F30988406880477D
S3150FE10440FEE70000880000208C00002004300E40FB
S3150FE104500202000004500E40090200000008E10FFD
S3150FE1046008ED00E08021890508801248488012488E
S3150FE104700168124A0A40010D11430160BFF34F8F24
S3150FE104800F4810490860BFF34F8F00BFFDE780208B
S3150FE1049080054188074A914201D1008870470029BA
S3150FE104A004D10088012801D10748704780208000D8
S3150FE104B0704700000FF0000000500E40FFF8FFFFFD
S3150FE104C00400FA050CED00E00202000030B4012150
S3150FE104D00268001D002A0FD00368C318446808306C
S3150FE104E00C4202D04D466D1E64191D6825601B1D19
S3150FE104F0241D121FECD0F8E730BC704710B5074941
S3150FE1050079441831064C7C44163404E0081D0A6818
S3150FE10510891888470100A142F8D110BD08000000F3
S3150FE1052018000000A9FFFFFF100000007400000093
S3150FE1053080000020000000000120C046002801D005
S3150FE10540FFF7DCFF002000BF00BFFFF749FF00F018
S3150FE1055000F880B500F002F801BD00000746384605
S3150FE1056000F002F8FBE700002021090326311820ED
S3150FE10570ABBEF9E702488047024880470248004789
S3150FE10580BD05E10F0504E10FB105E10FAD1007B0B0
S3150FE1059001000000000005010008E10F00800000E6
S3150FE105A0006CDC0200800000C0EA2101C0EA2101F3
S3130FE105B000BF00BF00BF00BFFFF7BEFF7047E1
S7050FE105B154
